{
  "_format": "hh-sol-artifact-1",
  "contractName": "ERC6551Account",
  "sourceName": "contracts/ERC6551Account.sol",
  "abi": [
    {
      "inputs": [],
      "stateMutability": "nonpayable",
      "type": "constructor"
    },
    {
      "inputs": [],
      "name": "InvalidSignature",
      "type": "error"
    },
    {
      "inputs": [],
      "name": "InvalidSigner",
      "type": "error"
    },
    {
      "inputs": [],
      "name": "NotAuthorized",
      "type": "error"
    },
    {
      "inputs": [],
      "name": "chainId",
      "outputs": [
        {
          "internalType": "uint256",
          "name": "",
          "type": "uint256"
        }
      ],
      "stateMutability": "view",
      "type": "function"
    },
    {
      "inputs": [
        {
          "internalType": "address",
          "name": "to",
          "type": "address"
        },
        {
          "internalType": "uint256",
          "name": "value",
          "type": "uint256"
        },
        {
          "internalType": "bytes",
          "name": "data",
          "type": "bytes"
        }
      ],
      "name": "executeCall",
      "outputs": [
        {
          "internalType": "bytes",
          "name": "result",
          "type": "bytes"
        }
      ],
      "stateMutability": "payable",
      "type": "function"
    },
    {
      "inputs": [],
      "name": "implementation",
      "outputs": [
        {
          "internalType": "address",
          "name": "",
          "type": "address"
        }
      ],
      "stateMutability": "view",
      "type": "function"
    },
    {
      "inputs": [
        {
          "internalType": "bytes32",
          "name": "hash",
          "type": "bytes32"
        },
        {
          "internalType": "bytes",
          "name": "signature",
          "type": "bytes"
        }
      ],
      "name": "isValidSignature",
      "outputs": [
        {
          "internalType": "bytes4",
          "name": "magicValue",
          "type": "bytes4"
        }
      ],
      "stateMutability": "view",
      "type": "function"
    },
    {
      "inputs": [],
      "name": "owner",
      "outputs": [
        {
          "internalType": "address",
          "name": "",
          "type": "address"
        }
      ],
      "stateMutability": "view",
      "type": "function"
    },
    {
      "inputs": [],
      "name": "state",
      "outputs": [
        {
          "internalType": "uint256",
          "name": "",
          "type": "uint256"
        }
      ],
      "stateMutability": "view",
      "type": "function"
    },
    {
      "inputs": [
        {
          "internalType": "bytes4",
          "name": "interfaceId",
          "type": "bytes4"
        }
      ],
      "name": "supportsInterface",
      "outputs": [
        {
          "internalType": "bool",
          "name": "",
          "type": "bool"
        }
      ],
      "stateMutability": "pure",
      "type": "function"
    },
    {
      "inputs": [],
      "name": "token",
      "outputs": [
        {
          "internalType": "uint256",
          "name": "chainId_",
          "type": "uint256"
        },
        {
          "internalType": "address",
          "name": "tokenContract_",
          "type": "address"
        },
        {
          "internalType": "uint256",
          "name": "tokenId_",
          "type": "uint256"
        }
      ],
      "stateMutability": "view",
      "type": "function"
    },
    {
      "inputs": [],
      "name": "tokenContract",
      "outputs": [
        {
          "internalType": "address",
          "name": "",
          "type": "address"
        }
      ],
      "stateMutability": "view",
      "type": "function"
    },
    {
      "inputs": [],
      "name": "tokenId",
      "outputs": [
        {
          "internalType": "uint256",
          "name": "",
          "type": "uint256"
        }
      ],
      "stateMutability": "view",
      "type": "function"
    },
    {
      "stateMutability": "payable",
      "type": "receive"
    }
  ],
  "bytecode": "0x61010060405234801561001157600080fd5b503060808190524660a0819052600060c081905260e081905280610a4c61007382396000818161012101526107c201526000818161016301526107a00152600081816101f801528181610345015261077e015260006101af0152610a4c6000f3fe6080604052600436106100955760003560e01c80638da5cb5b116100595780638da5cb5b146101d15780639a8a0592146101e65780639e5d4c491461021a578063c19d93fb1461023a578063fc0c546a1461025057600080fd5b806301ffc9a7146100a15780631626ba7e146100d657806317d70f7c1461010f57806355a373d6146101515780635c60da1b1461019d57600080fd5b3661009c57005b600080fd5b3480156100ad57600080fd5b506100c16100bc3660046107e4565b610288565b60405190151581526020015b60405180910390f35b3480156100e257600080fd5b506100f66100f1366004610857565b6102bf565b6040516001600160e01b031990911681526020016100cd565b34801561011b57600080fd5b506101437f000000000000000000000000000000000000000000000000000000000000000081565b6040519081526020016100cd565b34801561015d57600080fd5b506101857f000000000000000000000000000000000000000000000000000000000000000081565b6040516001600160a01b0390911681526020016100cd565b3480156101a957600080fd5b506101857f000000000000000000000000000000000000000000000000000000000000000081565b3480156101dd57600080fd5b5061018561032f565b3480156101f257600080fd5b506101437f000000000000000000000000000000000000000000000000000000000000000081565b61022d6102283660046108bb565b61055c565b6040516100cd9190610917565b34801561024657600080fd5b5061014360005481565b34801561025c57600080fd5b50610265610626565b604080519384526001600160a01b039092166020840152908201526060016100cd565b60006001600160e01b031982166301ffc9a760e01b14806102b957506001600160e01b03198216630b135d3f60e11b145b92915050565b60008061030a6102cd61032f565b8686868080601f01602080910402602001604051908101604052809392919081815260200183838082843760009201919091525061063e92505050565b905080156103225750630b135d3f60e11b9050610328565b60009150505b9392505050565b60008060008061033d61077c565b9250925092507f00000000000000000000000000000000000000000000000000000000000000008314610374576000935050505090565b6040516301ffc9a760e01b81526380ac58cd60e01b60048201526001600160a01b038316906301ffc9a790602401602060405180830381865afa1580156103bf573d6000803e3d6000fd5b505050506040513d601f19601f820116820180604052508101906103e39190610966565b15610459576040516331a9108f60e11b8152600481018290526001600160a01b03831690636352211e90602401602060405180830381865afa15801561042d573d6000803e3d6000fd5b505050506040513d601f19601f820116820180604052508101906104519190610988565b935050505090565b6040516301ffc9a760e01b8152636cdb3d1360e11b60048201526001600160a01b038316906301ffc9a790602401602060405180830381865afa1580156104a4573d6000803e3d6000fd5b505050506040513d601f19601f820116820180604052508101906104c89190610966565b1561055257604051627eeac760e11b8152336004820152602481018290526000906001600160a01b0384169062fdd58e90604401602060405180830381865afa158015610519573d6000803e3d6000fd5b505050506040513d601f19601f8201168201806040525081019061053d91906109a5565b11610549576000610451565b33935050505090565b6000935050505090565b606061056661032f565b6001600160a01b0316336001600160a01b0316146105975760405163ea8e4eb560e01b815260040160405180910390fd5b60008081546105a5906109d4565b919050819055506000856001600160a01b03168585856040516105c99291906109ed565b60006040518083038185875af1925050503d8060008114610606576040519150601f19603f3d011682016040523d82523d6000602084013e61060b565b606091505b50925090508061061d57815160208301fd5b50949350505050565b600080600061063361077c565b925092509250909192565b600081516041036106d157602082810151604080850151606080870151835160008082529681018086528a9052951a928501839052840183905260808401819052919260019060a0016020604051602081039080840390855afa1580156106a9573d6000803e3d6000fd5b505050602060405103516001600160a01b0316876001600160a01b0316149350505050610328565b815160400361077457602082015160408301516001856106f660ff84901c601b6109fd565b6040805160008152602081018083529390935260ff90911690820152606081018490526001600160ff1b038316608082015260a0016020604051602081039080840390855afa15801561074d573d6000803e3d6000fd5b505050602060405103516001600160a01b0316866001600160a01b03161492505050610328565b506000610328565b7f0000000000000000000000000000000000000000000000000000000000000000907f0000000000000000000000000000000000000000000000000000000000000000907f000000000000000000000000000000000000000000000000000000000000000090565b6000602082840312156107f657600080fd5b81356001600160e01b03198116811461032857600080fd5b60008083601f84011261082057600080fd5b50813567ffffffffffffffff81111561083857600080fd5b60208301915083602082850101111561085057600080fd5b9250929050565b60008060006040848603121561086c57600080fd5b83359250602084013567ffffffffffffffff81111561088a57600080fd5b6108968682870161080e565b9497909650939450505050565b6001600160a01b03811681146108b857600080fd5b50565b600080600080606085870312156108d157600080fd5b84356108dc816108a3565b935060208501359250604085013567ffffffffffffffff8111156108ff57600080fd5b61090b8782880161080e565b95989497509550505050565b60006020808352835180602085015260005b8181101561094557858101830151858201604001528201610929565b506000604082860101526040601f19601f8301168501019250505092915050565b60006020828403121561097857600080fd5b8151801515811461032857600080fd5b60006020828403121561099a57600080fd5b8151610328816108a3565b6000602082840312156109b757600080fd5b5051919050565b634e487b7160e01b600052601160045260246000fd5b6000600182016109e6576109e66109be565b5060010190565b8183823760009101908152919050565b60ff81811683821601908111156102b9576102b96109be56fea2646970667358221220fd7d3513b09c55f9922f5e3799ecf862cc54b39e15cc04f6526617fb9c58103464736f6c63430008180033",
  "linkReferences": {},
  "deployedLinkReferences": {}
}