{
  "_format": "hh-sol-artifact-1",
  "contractName": "ERC6551Account",
  "sourceName": "contracts/ERC6551Account.sol",
  "abi": [
    {
      "inputs": [],
      "stateMutability": "nonpayable",
      "type": "constructor"
    },
    {
      "inputs": [],
      "name": "InvalidSignature",
      "type": "error"
    },
    {
      "inputs": [],
      "name": "InvalidSigner",
      "type": "error"
    },
    {
      "inputs": [],
      "name": "NotAuthorized",
      "type": "error"
    },
    {
      "inputs": [],
      "name": "chainId",
      "outputs": [
        {
          "internalType": "uint256",
          "name": "",
          "type": "uint256"
        }
      ],
      "stateMutability": "view",
      "type": "function"
    },
    {
      "inputs": [
        {
          "internalType": "address",
          "name": "to",
          "type": "address"
        },
        {
          "internalType": "uint256",
          "name": "value",
          "type": "uint256"
        },
        {
          "internalType": "bytes",
          "name": "data",
          "type": "bytes"
        }
      ],
      "name": "executeCall",
      "outputs": [
        {
          "internalType": "bytes",
          "name": "result",
          "type": "bytes"
        }
      ],
      "stateMutability": "payable",
      "type": "function"
    },
    {
      "inputs": [],
      "name": "implementation",
      "outputs": [
        {
          "internalType": "address",
          "name": "",
          "type": "address"
        }
      ],
      "stateMutability": "view",
      "type": "function"
    },
    {
      "inputs": [
        {
          "internalType": "bytes32",
          "name": "hash",
          "type": "bytes32"
        },
        {
          "internalType": "bytes",
          "name": "signature",
          "type": "bytes"
        }
      ],
      "name": "isValidSignature",
      "outputs": [
        {
          "internalType": "bytes4",
          "name": "magicValue",
          "type": "bytes4"
        }
      ],
      "stateMutability": "view",
      "type": "function"
    },
    {
      "inputs": [],
      "name": "owner",
      "outputs": [
        {
          "internalType": "address",
          "name": "",
          "type": "address"
        }
      ],
      "stateMutability": "view",
      "type": "function"
    },
    {
      "inputs": [],
      "name": "state",
      "outputs": [
        {
          "internalType": "uint256",
          "name": "",
          "type": "uint256"
        }
      ],
      "stateMutability": "view",
      "type": "function"
    },
    {
      "inputs": [
        {
          "internalType": "bytes4",
          "name": "interfaceId",
          "type": "bytes4"
        }
      ],
      "name": "supportsInterface",
      "outputs": [
        {
          "internalType": "bool",
          "name": "",
          "type": "bool"
        }
      ],
      "stateMutability": "pure",
      "type": "function"
    },
    {
      "inputs": [],
      "name": "token",
      "outputs": [
        {
          "internalType": "uint256",
          "name": "chainId_",
          "type": "uint256"
        },
        {
          "internalType": "address",
          "name": "tokenContract_",
          "type": "address"
        },
        {
          "internalType": "uint256",
          "name": "tokenId_",
          "type": "uint256"
        }
      ],
      "stateMutability": "view",
      "type": "function"
    },
    {
      "inputs": [],
      "name": "tokenContract",
      "outputs": [
        {
          "internalType": "address",
          "name": "",
          "type": "address"
        }
      ],
      "stateMutability": "view",
      "type": "function"
    },
    {
      "inputs": [],
      "name": "tokenId",
      "outputs": [
        {
          "internalType": "uint256",
          "name": "",
          "type": "uint256"
        }
      ],
      "stateMutability": "view",
      "type": "function"
    },
    {
      "stateMutability": "payable",
      "type": "receive"
    }
  ],
  "bytecode": "0x61010060405234801561001157600080fd5b503073ffffffffffffffffffffffffffffffffffffffff1660808173ffffffffffffffffffffffffffffffffffffffff16815250504660a08181525050600073ffffffffffffffffffffffffffffffffffffffff1660c08173ffffffffffffffffffffffffffffffffffffffff1681525050600060e0818152505060805160a05160c05160e0516110f66100e1600039600081816103cc01526109ed0152600081816103f001526109cc01526000818161044c015281816106e101526109ab0152600061041401526110f66000f3fe6080604052600436106100955760003560e01c80638da5cb5b116100595780638da5cb5b1461019c5780639a8a0592146101c75780639e5d4c49146101f2578063c19d93fb14610222578063fc0c546a1461024d5761009c565b806301ffc9a7146100a15780631626ba7e146100de57806317d70f7c1461011b57806355a373d6146101465780635c60da1b146101715761009c565b3661009c57005b600080fd5b3480156100ad57600080fd5b506100c860048036038101906100c39190610a79565b61027a565b6040516100d59190610ac1565b60405180910390f35b3480156100ea57600080fd5b5061010560048036038101906101009190610b77565b61034c565b6040516101129190610be6565b60405180910390f35b34801561012757600080fd5b506101306103ca565b60405161013d9190610c1a565b60405180910390f35b34801561015257600080fd5b5061015b6103ee565b6040516101689190610c76565b60405180910390f35b34801561017d57600080fd5b50610186610412565b6040516101939190610c76565b60405180910390f35b3480156101a857600080fd5b506101b1610436565b6040516101be9190610c76565b60405180910390f35b3480156101d357600080fd5b506101dc6106df565b6040516101e99190610c1a565b60405180910390f35b61020c60048036038101906102079190610ce9565b610703565b6040516102199190610ded565b60405180910390f35b34801561022e57600080fd5b50610237610811565b6040516102449190610c1a565b60405180910390f35b34801561025957600080fd5b50610262610817565b60405161027193929190610e0f565b60405180910390f35b60007f01ffc9a7000000000000000000000000000000000000000000000000000000007bffffffffffffffffffffffffffffffffffffffffffffffffffffffff1916827bffffffffffffffffffffffffffffffffffffffffffffffffffffffff1916148061034557507f1626ba7e000000000000000000000000000000000000000000000000000000007bffffffffffffffffffffffffffffffffffffffffffffffffffffffff1916827bffffffffffffffffffffffffffffffffffffffffffffffffffffffff1916145b9050919050565b6000806103a561035a610436565b8686868080601f016020809104026020016040519081016040528093929190818152602001838380828437600081840152601f19601f8201169050808301925050505050505061082f565b905080156103bd57631626ba7e60e01b9150506103c3565b60009150505b9392505050565b7f000000000000000000000000000000000000000000000000000000000000000081565b7f000000000000000000000000000000000000000000000000000000000000000081565b7f000000000000000000000000000000000000000000000000000000000000000081565b6000806000806104446109a4565b9250925092507f0000000000000000000000000000000000000000000000000000000000000000831461047d57600093505050506106dc565b8173ffffffffffffffffffffffffffffffffffffffff166301ffc9a77f80ac58cd000000000000000000000000000000000000000000000000000000006040518263ffffffff1660e01b81526004016104d69190610be6565b602060405180830381865afa1580156104f3573d6000803e3d6000fd5b505050506040513d601f19601f820116820180604052508101906105179190610e72565b156105a0578173ffffffffffffffffffffffffffffffffffffffff16636352211e826040518263ffffffff1660e01b81526004016105559190610c1a565b602060405180830381865afa158015610572573d6000803e3d6000fd5b505050506040513d601f19601f820116820180604052508101906105969190610eb4565b93505050506106dc565b8173ffffffffffffffffffffffffffffffffffffffff166301ffc9a77fd9b67a26000000000000000000000000000000000000000000000000000000006040518263ffffffff1660e01b81526004016105f99190610be6565b602060405180830381865afa158015610616573d6000803e3d6000fd5b505050506040513d601f19601f8201168201806040525081019061063a9190610e72565b156106d45760008273ffffffffffffffffffffffffffffffffffffffff1662fdd58e33846040518363ffffffff1660e01b815260040161067b929190610ee1565b602060405180830381865afa158015610698573d6000803e3d6000fd5b505050506040513d601f19601f820116820180604052508101906106bc9190610f1f565b116106c85760006106ca565b335b93505050506106dc565b600093505050505b90565b7f000000000000000000000000000000000000000000000000000000000000000081565b606061070d610436565b73ffffffffffffffffffffffffffffffffffffffff163373ffffffffffffffffffffffffffffffffffffffff1614610771576040517fea8e4eb500000000000000000000000000000000000000000000000000000000815260040160405180910390fd5b600080815461077f90610f7b565b9190508190555060008573ffffffffffffffffffffffffffffffffffffffff168585856040516107b0929190611002565b60006040518083038185875af1925050503d80600081146107ed576040519150601f19603f3d011682016040523d82523d6000602084013e6107f2565b606091505b5080935081925050508061080857815160208301fd5b50949350505050565b60005481565b60008060006108246109a4565b925092509250909192565b600060418251036108de5760008060006020850151925060408501519150606085015160001a90506001868285856040516000815260200160405260405161087a9493929190611046565b6020604051602081039080840390855afa15801561089c573d6000803e3d6000fd5b5050506020604051035173ffffffffffffffffffffffffffffffffffffffff168773ffffffffffffffffffffffffffffffffffffffff1614935050505061099d565b6040825103610998576000806020840151915060408401519050600185601b60ff84901c60001c61090f919061108b565b8460018086901b901c604051600081526020016040526040516109359493929190611046565b6020604051602081039080840390855afa158015610957573d6000803e3d6000fd5b5050506020604051035173ffffffffffffffffffffffffffffffffffffffff168673ffffffffffffffffffffffffffffffffffffffff16149250505061099d565b600090505b9392505050565b60008060007f00000000000000000000000000000000000000000000000000000000000000007f00000000000000000000000000000000000000000000000000000000000000007f0000000000000000000000000000000000000000000000000000000000000000925092509250909192565b600080fd5b600080fd5b60007fffffffff0000000000000000000000000000000000000000000000000000000082169050919050565b610a5681610a21565b8114610a6157600080fd5b50565b600081359050610a7381610a4d565b92915050565b600060208284031215610a8f57610a8e610a17565b5b6000610a9d84828501610a64565b91505092915050565b60008115159050919050565b610abb81610aa6565b82525050565b6000602082019050610ad66000830184610ab2565b92915050565b6000819050919050565b610aef81610adc565b8114610afa57600080fd5b50565b600081359050610b0c81610ae6565b92915050565b600080fd5b600080fd5b600080fd5b60008083601f840112610b3757610b36610b12565b5b8235905067ffffffffffffffff811115610b5457610b53610b17565b5b602083019150836001820283011115610b7057610b6f610b1c565b5b9250929050565b600080600060408486031215610b9057610b8f610a17565b5b6000610b9e86828701610afd565b935050602084013567ffffffffffffffff811115610bbf57610bbe610a1c565b5b610bcb86828701610b21565b92509250509250925092565b610be081610a21565b82525050565b6000602082019050610bfb6000830184610bd7565b92915050565b6000819050919050565b610c1481610c01565b82525050565b6000602082019050610c2f6000830184610c0b565b92915050565b600073ffffffffffffffffffffffffffffffffffffffff82169050919050565b6000610c6082610c35565b9050919050565b610c7081610c55565b82525050565b6000602082019050610c8b6000830184610c67565b92915050565b610c9a81610c55565b8114610ca557600080fd5b50565b600081359050610cb781610c91565b92915050565b610cc681610c01565b8114610cd157600080fd5b50565b600081359050610ce381610cbd565b92915050565b60008060008060608587031215610d0357610d02610a17565b5b6000610d1187828801610ca8565b9450506020610d2287828801610cd4565b935050604085013567ffffffffffffffff811115610d4357610d42610a1c565b5b610d4f87828801610b21565b925092505092959194509250565b600081519050919050565b600082825260208201905092915050565b60005b83811015610d97578082015181840152602081019050610d7c565b60008484015250505050565b6000601f19601f8301169050919050565b6000610dbf82610d5d565b610dc98185610d68565b9350610dd9818560208601610d79565b610de281610da3565b840191505092915050565b60006020820190508181036000830152610e078184610db4565b905092915050565b6000606082019050610e246000830186610c0b565b610e316020830185610c67565b610e3e6040830184610c0b565b949350505050565b610e4f81610aa6565b8114610e5a57600080fd5b50565b600081519050610e6c81610e46565b92915050565b600060208284031215610e8857610e87610a17565b5b6000610e9684828501610e5d565b91505092915050565b600081519050610eae81610c91565b92915050565b600060208284031215610eca57610ec9610a17565b5b6000610ed884828501610e9f565b91505092915050565b6000604082019050610ef66000830185610c67565b610f036020830184610c0b565b9392505050565b600081519050610f1981610cbd565b92915050565b600060208284031215610f3557610f34610a17565b5b6000610f4384828501610f0a565b91505092915050565b7f4e487b7100000000000000000000000000000000000000000000000000000000600052601160045260246000fd5b6000610f8682610c01565b91507fffffffffffffffffffffffffffffffffffffffffffffffffffffffffffffffff8203610fb857610fb7610f4c565b5b600182019050919050565b600081905092915050565b82818337600083830152505050565b6000610fe98385610fc3565b9350610ff6838584610fce565b82840190509392505050565b600061100f828486610fdd565b91508190509392505050565b61102481610adc565b82525050565b600060ff82169050919050565b6110408161102a565b82525050565b600060808201905061105b600083018761101b565b6110686020830186611037565b611075604083018561101b565b611082606083018461101b565b95945050505050565b60006110968261102a565b91506110a18361102a565b9250828201905060ff8111156110ba576110b9610f4c565b5b9291505056fea26469706673582212209b04e90b5e94ea49688b06434392cbaabe4d209e4125ed1110d24c850362fb4664736f6c63430008180033",
  "linkReferences": {},
  "deployedLinkReferences": {}
}