{
  "_format": "hh-sol-artifact-1",
  "contractName": "ERC6551Registry",
  "sourceName": "contracts/ERC6551Registry.sol",
  "abi": [
    {
      "anonymous": false,
      "inputs": [
        {
          "indexed": true,
          "internalType": "address",
          "name": "account",
          "type": "address"
        },
        {
          "indexed": true,
          "internalType": "address",
          "name": "implementation",
          "type": "address"
        },
        {
          "indexed": false,
          "internalType": "uint256",
          "name": "chainId",
          "type": "uint256"
        },
        {
          "indexed": true,
          "internalType": "address",
          "name": "tokenContract",
          "type": "address"
        },
        {
          "indexed": false,
          "internalType": "uint256",
          "name": "tokenId",
          "type": "uint256"
        },
        {
          "indexed": false,
          "internalType": "uint256",
          "name": "salt",
          "type": "uint256"
        }
      ],
      "name": "AccountCreated",
      "type": "event"
    },
    {
      "inputs": [
        {
          "internalType": "address",
          "name": "implementation",
          "type": "address"
        },
        {
          "internalType": "uint256",
          "name": "chainId",
          "type": "uint256"
        },
        {
          "internalType": "address",
          "name": "tokenContract",
          "type": "address"
        },
        {
          "internalType": "uint256",
          "name": "tokenId",
          "type": "uint256"
        },
        {
          "internalType": "uint256",
          "name": "salt",
          "type": "uint256"
        }
      ],
      "name": "account",
      "outputs": [
        {
          "internalType": "address",
          "name": "",
          "type": "address"
        }
      ],
      "stateMutability": "view",
      "type": "function"
    },
    {
      "inputs": [
        {
          "internalType": "bytes32",
          "name": "",
          "type": "bytes32"
        }
      ],
      "name": "accounts",
      "outputs": [
        {
          "internalType": "address",
          "name": "",
          "type": "address"
        }
      ],
      "stateMutability": "view",
      "type": "function"
    },
    {
      "inputs": [
        {
          "internalType": "address",
          "name": "implementation",
          "type": "address"
        }
      ],
      "name": "addImplementation",
      "outputs": [],
      "stateMutability": "nonpayable",
      "type": "function"
    },
    {
      "inputs": [
        {
          "internalType": "address",
          "name": "implementation",
          "type": "address"
        },
        {
          "internalType": "uint256",
          "name": "chainId",
          "type": "uint256"
        },
        {
          "internalType": "address",
          "name": "tokenContract",
          "type": "address"
        },
        {
          "internalType": "uint256",
          "name": "tokenId",
          "type": "uint256"
        },
        {
          "internalType": "uint256",
          "name": "salt",
          "type": "uint256"
        },
        {
          "internalType": "bytes",
          "name": "initData",
          "type": "bytes"
        }
      ],
      "name": "createAccount",
      "outputs": [
        {
          "internalType": "address",
          "name": "",
          "type": "address"
        }
      ],
      "stateMutability": "nonpayable",
      "type": "function"
    },
    {
      "inputs": [
        {
          "internalType": "address",
          "name": "",
          "type": "address"
        }
      ],
      "name": "implementations",
      "outputs": [
        {
          "internalType": "bool",
          "name": "",
          "type": "bool"
        }
      ],
      "stateMutability": "view",
      "type": "function"
    },
    {
      "inputs": [
        {
          "internalType": "address",
          "name": "implementation",
          "type": "address"
        }
      ],
      "name": "removeImplementation",
      "outputs": [],
      "stateMutability": "nonpayable",
      "type": "function"
    }
  ],
  "bytecode": "0x608060405234801561001057600080fd5b50610a5d806100206000396000f3fe608060405234801561001057600080fd5b50600436106100625760003560e01c806322175a32146100675780635e9bc53614610083578063bc529c43146100b3578063c6e2a400146100e3578063da7323b3146100ff578063f79eb32c1461012f575b600080fd5b610081600480360381019061007c91906105ab565b61015f565b005b61009d6004803603810190610098919061060e565b6101ba565b6040516100aa9190610698565b60405180910390f35b6100cd60048036038101906100c891906106e9565b610259565b6040516100da9190610698565b60405180910390f35b6100fd60048036038101906100f891906105ab565b61028c565b005b6101196004803603810190610114919061077b565b6102e6565b6040516101269190610698565b60405180910390f35b610149600480360381019061014491906105ab565b610523565b6040516101569190610845565b60405180910390f35b6000600160008373ffffffffffffffffffffffffffffffffffffffff1673ffffffffffffffffffffffffffffffffffffffff16815260200190815260200160002060006101000a81548160ff02191690831515021790555050565b600080826040516020016101ce9190610881565b60405160208183030381529060405280519060200120905060008787878785604051602001610201959493929190610905565b60405160208183030381529060405280519060200120905060008082815260200190815260200160002060009054906101000a900473ffffffffffffffffffffffffffffffffffffffff169250505095945050505050565b60006020528060005260406000206000915054906101000a900473ffffffffffffffffffffffffffffffffffffffff1681565b60018060008373ffffffffffffffffffffffffffffffffffffffff1673ffffffffffffffffffffffffffffffffffffffff16815260200190815260200160002060006101000a81548160ff02191690831515021790555050565b6000600160008973ffffffffffffffffffffffffffffffffffffffff1673ffffffffffffffffffffffffffffffffffffffff16815260200190815260200160002060009054906101000a900460ff16610374576040517f08c379a000000000000000000000000000000000000000000000000000000000815260040161036b906109c1565b60405180910390fd5b6000846040516020016103879190610881565b604051602081830303815290604052805190602001209050600089898989856040516020016103ba959493929190610905565b60405160208183030381529060405280519060200120905060008160001c9050600073ffffffffffffffffffffffffffffffffffffffff1660008084815260200190815260200160002060009054906101000a900473ffffffffffffffffffffffffffffffffffffffff1673ffffffffffffffffffffffffffffffffffffffff1603610512578060008084815260200190815260200160002060006101000a81548173ffffffffffffffffffffffffffffffffffffffff021916908373ffffffffffffffffffffffffffffffffffffffff1602179055508873ffffffffffffffffffffffffffffffffffffffff168b73ffffffffffffffffffffffffffffffffffffffff168273ffffffffffffffffffffffffffffffffffffffff167f07fba7bba1191da7ee1155dcfa0030701c9c9a9cc34a93b991fc6fd0c9268d8f8d8c8c604051610509939291906109f0565b60405180910390a45b809350505050979650505050505050565b60016020528060005260406000206000915054906101000a900460ff1681565b600080fd5b600080fd5b600073ffffffffffffffffffffffffffffffffffffffff82169050919050565b60006105788261054d565b9050919050565b6105888161056d565b811461059357600080fd5b50565b6000813590506105a58161057f565b92915050565b6000602082840312156105c1576105c0610543565b5b60006105cf84828501610596565b91505092915050565b6000819050919050565b6105eb816105d8565b81146105f657600080fd5b50565b600081359050610608816105e2565b92915050565b600080600080600060a0868803121561062a57610629610543565b5b600061063888828901610596565b9550506020610649888289016105f9565b945050604061065a88828901610596565b935050606061066b888289016105f9565b925050608061067c888289016105f9565b9150509295509295909350565b6106928161056d565b82525050565b60006020820190506106ad6000830184610689565b92915050565b6000819050919050565b6106c6816106b3565b81146106d157600080fd5b50565b6000813590506106e3816106bd565b92915050565b6000602082840312156106ff576106fe610543565b5b600061070d848285016106d4565b91505092915050565b600080fd5b600080fd5b600080fd5b60008083601f84011261073b5761073a610716565b5b8235905067ffffffffffffffff8111156107585761075761071b565b5b60208301915083600182028301111561077457610773610720565b5b9250929050565b600080600080600080600060c0888a03121561079a57610799610543565b5b60006107a88a828b01610596565b97505060206107b98a828b016105f9565b96505060406107ca8a828b01610596565b95505060606107db8a828b016105f9565b94505060806107ec8a828b016105f9565b93505060a088013567ffffffffffffffff81111561080d5761080c610548565b5b6108198a828b01610725565b925092505092959891949750929550565b60008115159050919050565b61083f8161082a565b82525050565b600060208201905061085a6000830184610836565b92915050565b6000819050919050565b61087b610876826105d8565b610860565b82525050565b600061088d828461086a565b60208201915081905092915050565b60008160601b9050919050565b60006108b48261089c565b9050919050565b60006108c6826108a9565b9050919050565b6108de6108d98261056d565b6108bb565b82525050565b6000819050919050565b6108ff6108fa826106b3565b6108e4565b82525050565b600061091182886108cd565b601482019150610921828761086a565b60208201915061093182866108cd565b601482019150610941828561086a565b60208201915061095182846108ee565b6020820191508190509695505050505050565b600082825260208201905092915050565b7f496e76616c696420696d706c656d656e746174696f6e00000000000000000000600082015250565b60006109ab601683610964565b91506109b682610975565b602082019050919050565b600060208201905081810360008301526109da8161099e565b9050919050565b6109ea816105d8565b82525050565b6000606082019050610a0560008301866109e1565b610a1260208301856109e1565b610a1f60408301846109e1565b94935050505056fea2646970667358221220128c267a4b871a30a206c45a7f2f5f29a6aa94f5b8c67614299de02e4ce41b5264736f6c63430008180033",
  "linkReferences": {},
  "deployedLinkReferences": {}
}